:020000040000fa
:080000000002040000000000f2
:020000040000fa
:040008005c03000095
:020000040000fa
:04000c005c03000091
:020000040000fa
:040010005c0300008d
:020000040000fa
:040014005c03000089
:020000040000fa
:040018005c03000085
:020000040000fa
:04001c005c03000081
:020000040000fa
:040020005c0300007d
:020000040000fa
:040024005c03000079
:020000040000fa
:040028005c03000075
:020000040000fa
:04002c005c03000071
:020000040000fa
:040030005c0300006d
:020000040000fa
:040034005c03000069
:020000040000fa
:040038005c03000065
:020000040000fa
:04003c005c03000061
:020000040000fa
:040040005c0300005d
:020000040000fa
:04004400c8020000ee
:020000040000fa
:040048005c03000055
:020000040000fa
:04004c005c03000051
:020000040000fa
:040050005c0300004d
:020000040000fa
:040054005c03000049
:020000040000fa
:040058005c03000045
:020000040000fa
:04005c005c03000041
:020000040000fa
:040060005c0300003d
:020000040000fa
:040064005c03000039
:020000040000fa
:040068005c03000035
:020000040000fa
:04006c005c03000031
:020000040000fa
:040070005c0300002d
:020000040000fa
:04007400d2020000b4
:020000040000fa
:040078005c03000025
:020000040000fa
:04007c005c03000021
:020000040000fa
:040080005c0300001d
:020000040000fa
:040084005c03000019
:020000040000fa
:040088005c03000015
:020000040000fa
:04008c005c03000011
:020000040000fa
:040090005c0300000d
:020000040000fa
:040094005c03000009
:020000040000fa
:040098005c03000005
:020000040000fa
:04009c005c03000001
:020000040000fa
:0400a0005c030000fd
:020000040000fa
:0400a4005203000003
:020000040000fa
:0400a8005c030000f5
:020000040000fa
:0400ac005c030000f1
:020000040000fa
:0400b0005c030000ed
:020000040000fa
:0400b4005c030000e9
:020000040000fa
:0400b8005c030000e5
:020000040000fa
:0400bc005c030000e1
:020000040000fa
:0400c0005c030000dd
:020000040000fa
:0400c4005c030000d9
:020000040000fa
:0400c8005c030000d5
:020000040000fa
:0400cc005c030000d1
:020000040000fa
:0400d0005c030000cd
:020000040000fa
:0400d4005c030000c9
:020000040000fa
:0400d8005c030000c5
:020000040000fa
:0400dc005c030000c1
:020000040000fa
:0400e0005c030000bd
:020000040000fa
:0400e4005c030000b9
:020000040000fa
:0400e8005c030000b5
:020000040000fa
:0400ec005c030000b1
:020000040000fa
:0400f0005c030000ad
:020000040000fa
:0400f4005c030000a9
:020000040000fa
:0400f8005c030000a5
:020000040000fa
:0400fc005c030000a1
:020000040000fa
:040100005c0300009c
:020000040000fa
:040104005c03000098
:020000040000fa
:040108005c03000094
:020000040000fa
:04010c005c03000090
:020000040000fa
:040110005c0300008c
:020000040000fa
:040114005c03000088
:020000040000fa
:040118005c03000084
:020000040000fa
:04011c005c03000080
:020000040000fa
:040120005c0300007c
:020000040000fa
:040124005c03000078
:020000040000fa
:040128005c03000074
:020000040000fa
:04012c005c03000070
:020000040000fa
:040130005c0300006c
:020000040000fa
:040134005c03000068
:020000040000fa
:040138005c03000064
:020000040000fa
:04013c005c03000060
:020000040000fa
:040140005c0300005c
:020000040000fa
:040144005c03000058
:020000040000fa
:040148005c03000054
:020000040000fa
:04014c005c03000050
:020000040000fa
:040150005c0300004c
:020000040000fa
:040154005c03000048
:020000040000fa
:040158005c03000044
:020000040000fa
:04015c005c03000040
:020000040000fa
:040208005c03000093
:020000040000fa
:04020c005c0300008f
:020000040000fa
:040210005c0300008b
:020000040000fa
:040214005c03000087
:020000040000fa
:040218005c03000083
:020000040000fa
:04021c005c0300007f
:020000040000fa
:040220005c0300007b
:020000040000fa
:040224005c03000077
:020000040000fa
:040228005c03000073
:020000040000fa
:04022c005c0300006f
:020000040000fa
:040230005c0300006b
:020000040000fa
:040234005c03000067
:020000040000fa
:040238005c03000063
:020000040000fa
:04023c005c0300005f
:020000040000fa
:040240005c0300005b
:020000040000fa
:04024400c8020000ec
:020000040000fa
:040248005c03000053
:020000040000fa
:04024c005c0300004f
:020000040000fa
:040250005c0300004b
:020000040000fa
:040254005c03000047
:020000040000fa
:040258005c03000043
:020000040000fa
:04025c005c0300003f
:020000040000fa
:040260005c0300003b
:020000040000fa
:040264005c03000037
:020000040000fa
:040268005c03000033
:020000040000fa
:04026c005c0300002f
:020000040000fa
:040270005c0300002b
:020000040000fa
:04027400d2020000b2
:020000040000fa
:040278005c03000023
:020000040000fa
:04027c005c0300001f
:020000040000fa
:040280005c0300001b
:020000040000fa
:040284005c03000017
:020000040000fa
:040288005c03000013
:020000040000fa
:04028c005c0300000f
:020000040000fa
:040290005c0300000b
:020000040000fa
:040294005c03000007
:020000040000fa
:040298005c03000003
:020000040000fa
:04029c005c030000ff
:020000040000fa
:0402a0005c030000fb
:020000040000fa
:0402a4005203000001
:020000040000fa
:0402a8005c030000f3
:020000040000fa
:0402ac005c030000ef
:020000040000fa
:0402b0005c030000eb
:020000040000fa
:0402b4005c030000e7
:020000040000fa
:0402b8005c030000e3
:020000040000fa
:0402bc005c030000df
:020000040000fa
:0402c0005c030000db
:020000040000fa
:0402c4005c030000d7
:020000040000fa
:0402c8005c030000d3
:020000040000fa
:0402cc005c030000cf
:020000040000fa
:0402d0005c030000cb
:020000040000fa
:0402d4005c030000c7
:020000040000fa
:0402d8005c030000c3
:020000040000fa
:0402dc005c030000bf
:020000040000fa
:0402e0005c030000bb
:020000040000fa
:0402e4005c030000b7
:020000040000fa
:0402e8005c030000b3
:020000040000fa
:0402ec005c030000af
:020000040000fa
:0402f0005c030000ab
:020000040000fa
:0402f4005c030000a7
:020000040000fa
:0402f8005c030000a3
:020000040000fa
:0402fc005c0300009f
:020000040000fa
:040300005c0300009a
:020000040000fa
:040304005c03000096
:020000040000fa
:040308005c03000092
:020000040000fa
:04030c005c0300008e
:020000040000fa
:040310005c0300008a
:020000040000fa
:040314005c03000086
:020000040000fa
:040318005c03000082
:020000040000fa
:04031c005c0300007e
:020000040000fa
:040320005c0300007a
:020000040000fa
:040324005c03000076
:020000040000fa
:040328005c03000072
:020000040000fa
:04032c005c0300006e
:020000040000fa
:040330005c0300006a
:020000040000fa
:040334005c03000066
:020000040000fa
:040338005c03000062
:020000040000fa
:04033c005c0300005e
:020000040000fa
:040340005c0300005a
:020000040000fa
:040344005c03000056
:020000040000fa
:040348005c03000052
:020000040000fa
:04034c005c0300004e
:020000040000fa
:040350005c0300004a
:020000040000fa
:040354005c03000046
:020000040000fa
:040358005c03000042
:020000040000fa
:04035c005c0300003e
:020000040000fa
:10040000ef8020000edf20000e01880000000000b9
:10041000000020000000e000020032000001200087
:100420002002880014000700a50007000000e0007b
:1004300003003a00a07220000100200002003700f3
:100440000000200001002000810f70000100320038
:1004500014000700000020000000e000020032004d
:100460000000020000000000400702000000000041
:100470000040da000000fe004440a90060012000b6
:100480000000e0000300320000002000a00188000e
:100490004440a800000006008a1f78008b1f7800e7
:1004a0000000060091018800800478000000eb0045
:1004b0001a003700e284440032a0b4009905ba0063
:1004c000e284440032a0b4009906ba00e2844400f9
:1004d00032a0b4000006eb00476fde00fd07b2005b
:1004e000636ce10003003a00ebff07000000eb0043
:1004f0000a003700606ce10004003a00005deb0088
:100500008b05e900fdff3e00040037006168e10053
:10051000010032000086eb000b00070019c7ba008b
:100520001905ba000e04e00003003a000a00e000da
:10053000e0ff3a0000000600fe07b2009e018800be
:100540008a047800f5ff3700395dba008b05e900b1
:100550000c003200295dba008b05e900080032006a
:100560000c00e00003003a00e284440032a0b40032
:10057000f5ff370019ddba008b05e900faff3a00f4
:100580008904e800e184440032a0b40000000600c1
:100590000000fa0084e0a90011e1a9000080fa003f
:1005a00000400600801f78000000fa008660a90065
:1005b00010168000640060000000e0000d003a00aa
:1005c00010168000700060000000e000090032009a
:1005d00050168000700060000000e000050032004e
:1005e00010002000004088000228ef000428ef00df
:1005f0002900370010168000640060000000e00051
:100600000d00320010168000700060000000e00055
:100610000900320050168000700060000000e00009
:1006200005003a000028ef0010002000104088006c
:100630000428ef00180037001016800064006000e6
:100640000000e00011003200101680007000600011
:100650000000e0000d003a005016800070006000bd
:100660000000e000090032000028ef000228ef003f
:10067000100020002040880050408000e10f500012
:1006800005003a000a28ef00030037000028ef00b9
:100690000228ef000428ef000080fa004f007800e5
:1006a000004006000000fa0087e0a90000000000fa
:1006b0000080fa00004006000040da000000fe0062
:1006c0000000050080007800040037003104e000dd
:1006d00002003a000000510000000600010178000d
:1006e0000108a300f9ff3a00810178003101780088
:1006f000f4ef2f00020242000281ea0002016200d0
:100700000408280004016100f7ff3200830078002c
:10071000010178003104e000fdff3a0000005100c3
:0407200000000600cf
:020000040000fa
:100724001b5b0000324b0000000d0000006d000058
:10073400203a000020000000202d00002d200000a1
:0c074400414c0000415200004d0000003c
:020000040000fa
:100750000000fa00c802a900c822a800cc02a80024
:100760008000280080118800113a800000002700d6
:100770008080600000002600808f500003003a0057
:10078000c0002000c011880010003700113a80001e
:10079000000027008080600000002500808f50004e
:1007a00003003a00c0002000c01188000700370095
:1007b000113a800000002700008060000000e00087
:1007c00002003a0070062000c011880000002200dc
:1007d0009011880087e0a90091058000f0ff2800b3
:1007e00080806000000026000100700090058800f5
:1007f00097e0a80031e2a8003342a8000080fa0088
:10080000000006000400fa00004f78000e80e800a7
:10081000010878000f0037000140fe00010037009a
:100820000000000091118000002020000080600086
:100830000000e000f8ff3a001e00fb00a011880055
:100840000e80e800100078008000e9000e80e800cb
:10085000010878000e80e800100078000000e00039
:10086000efff3a000000000091118000001020000e
:10087000008060000000e000fbff32000080fa0012
:10088000000006000400fa008e80e800800878006e
:100890000000eb00000f7800070037000e80e80032
:1008a000100078001e004000104078001100200069
:1008b000d4ff07001e0fe8000e80e800100078004b
:1008c00080ff07009e0f5000f4ff31000080fa0007
:1008d000000006000a00fa00e800470080087800df
:1008e000e2004700010009008018eb008058eb008f
:1008f0000040eb00004f78000040eb00004f780014
:10090000150037009e81fb00680047001001780049
:10091000d0cc2c000010b8004308de006a00b900fb
:10092000000078000000510080407800030047007c
:100930000080e800014878006800470090007800d7
:10094000d0cc2c000008b800c308de0068004700c7
:10095000010878001e4fe8001e407800e44f500068
:10096000e8ff36001100200000c2b300a5ff070019
:1009700020c0b300004f78000c0037001e80fb0041
:100980000000e900800047000e00e8008180e800d8
:10099000114878000e00e800104078000043b000d5
:1009a0001100200097ff07001e4fe9001e4078004d
:1009b0000004e000f1ff3a001100200000c2b30083
:1009c00090ff07000080fa00000006000000fa0017
:1009d000304080000000e900304088003040800056
:1009e0000000e00001003d000628ef000080fa0052
:1009f000000006000000fa00803e20000001070011
:100a0000404080000000e9004040880040408000f5
:100a10000000e00003003d00ecff0700b0032000f1
:100a2000404088000080fa00000006000000fa0044
:100a3000304080000000e8003040880031408000f5
:100a4000b0032000808f5000010034000628ef0022
:100a50000080fa00000006000000fa00404080001c
:100a60000000e8004040880041408000b0032000c2
:100a7000808f5000010034000828ef000080fa0049
:100a8000000006000000fa00203928007dff070062
:100a9000703928007bff0700304080008dff070081
:100aa0009039280077ff07004040800089ff070049
:100ab0000080fa00000006000000fa000c00370079
:100ac000ccff0700404080000000e00003003a0037
:100ad000304080000000e00009003200cd02a80094
:100ae000e8ff0700803e2000c5000700cd02a900f6
:100af00050408000e10f5000f1ff3200010037004c
:100b0000000000000a28ef0060408000e20f500063
:100b10000200360012000700daff070030408000b4
:100b20000000e00004003a00404080000000e000c7
:100b300001003a00020007000080fa0000000600f1
:100b40000000fa00cfff0700e03928004dff070042
:100b5000cd02a8000140fe000080fa00000006005f
:100b60000000fa000628ef000828ef000a28ef002e
:100b70000080fa00000006000000fa00c042a80051
:100b8000c082a800c882a8006bc0a8006800a800a6
:100b90006820a8006000a8006020a80063c0a8002a
:100ba00061058000f0ff28008080600000002500c3
:100bb00001007000600588008660a9009660a800aa
:100bc000c902a900cd02a9000080fa0000000600b9
:100bd0000000fa009660a9000019200088000700b4
:100be0009660a800cd02a90000408000e10f5000ef
:100bf0000a003a00040037008cff0700a1ff07003d
:100c0000401f20007e000700101680006400600076
:100c10000000e000f8ff32000028ef0010408000e4
:100c2000e10f50000a003a00040037008aff070075
:100c300094ff0700802520007100070050168000f7
:100c4000700060000000e000f8ff32000228ef00b2
:100c500020408000e10f500019003a000c28ef00fe
:100c600005003700803e20006500070060408000de
:100c70000000e800604088001016800070006000ee
:100c80000000e000f7ff320060408000e20f5000fb
:100c9000040036000a28ef00b1ff070079ff0700c3
:100ca00006003700504080000000e00003003a00da
:100cb00010002000504088007fff07000428ef004c
:100cc0000080fa00000006000400fa008e80e800b0
:100cd000800878000e80e80010007800e80f5000cf
:100ce00003003a000040eb00004f7800120037008c
:100cf0000e80e80090007800401f2000808f500098
:100d000003003a0060c6b300004f78000a003700c5
:100d10000e80e8009000780000022000808f5000d4
:100d200003003a0050c5b300004f780002003700be
:100d300050c5b300004f780011028000000e200063
:100d40000100700010028800213a8000f08f2f000f
:100d500000806000203a88001e01fb008007200010
:100d6000a10920003374200080497800814978006f
:100d700082497800120020006004200071052000e4
:100d800023742000804978008149780082497800e6
:100d90004207a80000000000103a800061006000d7
:100da0000000e000fcff3a0011028000f0f12f008b
:100db00000806000100288000080fa000000060039
:100dc0000000fa001061a9001021a900810880002c
:100dd00000032000010070008008880011a1a90014
:100de00031058000000027000100700030058800f8
:100df00094e0a80084e0a9000080fa00000006004a
:100e00000600fa00e400470080087800f0002000a7
:100e1000000f78009e007800640047001000780002
:100e20000088b900800078000e80e8000108780092
:100e30000e80e80010007800600888000621ef00ae
:100e400011e1a8000140fe0011e1a9000080fa00b4
:040e50000000060098
:020000040000fa
:100e54000008000006000000000000000c0800006c
:100e64000200000002000000ffff0000060800006e
:0c0e74000600000000000000000000006c
:020000040000fa
:100e80000000fa000080eb0060198800800020005c
:100e90008dff070038ff07002dfe0700c8ff070081
:080ea0004bff0700feff3700c5
:020000040000fa
:0200000401f009
:04000000ffffff00ff
:020000040000fa
:0200000401f009
:04000800ffffff00f7
:020000040000fa
:0200000401f009
:04000c0000000000f0
:020000040000fa
:0200000401f009
:040010005300000099
:020000040000fa
:0200000401f009
:0400140040000000a8
:020000040000fa
:0200000401f009
:0400180010000000d4
:020000040000fa
:0200000401f009
:04001c00c20000001e
:020000040000fa
:0200000401f009
:0400200017000000c5
:00000001FF
